:100000000C94B6050C94FD050C94FD050C94FD05AF
:100010000C94FD050C94FD050C94FD050C94FD0558
:100020000C94FD050C94FD050C94A7270C947B28DB
:100030000C94E6190C94FD050C94FD050C94FD053B
:100040000C94FD050C94FD050C94FD050C94FD0528
:100050000C94FD050C94581A0C94FD050C94FD05A8
:100060000C94FD050C94FD050C94FD050C94FD0508
:100070000C94FD050C94FD050C94FD050C94FD05F8
:100080000C94FD050C94FD050C94FD050C94FD05E8
:100090000C94FD050C94FD050C94FD050C94FD05D8
:1000A0000C94FD050C94FD050C94FD050000040066
:1000B00005000600E100070008000900444542551C
:1000C000473A2064697361626C65642E0A00444596
:1000D0004255473A20656E61626C65642E0A000ADB
:1000E0000025303862003A200025303258000A726C
:1000F0002F632030313233343536370A000A002579
:1001000030325820006B6579626F6172645F72658E
:10011000706F72743A20000A0025303258006B6507
:1001200079626F6172645F7365745F6C65643A20B5
:1001300000290A002575002F002575005D2800257F
:100140006400200025640020002564002000256450
:10015000007C0025303258006D6F7573656B6579D2
:10016000205B62746E7C782079207620685D28722E
:1001700065702F61636C293A205B006D6B5F776857
:1001800065656C5F74696D655F746F5F6D61782024
:100190003D2025640A006D6B5F776865656C5F6D57
:1001A00061785F7370656564203D2025640A006D89
:1001B0006B5F74696D655F746F5F6D6178203D2062
:1001C00025640A006D6B5F6D61785F7370656564AF
:1001D000203D2025640A006D6B5F696E7465727640
:1001E000616C203D2025640A006D6B5F64656C6165
:1001F00079203D2025640A006D6B5F776865656C2A
:100200005F74696D655F746F5F6D6178203D202557
:10021000640A006D6B5F776865656C5F6D61785F20
:100220007370656564203D2025640A006D6B5F7402
:10023000696D655F746F5F6D6178203D2025640A8C
:10024000006D6B5F6D61785F7370656564203D2044
:1002500025640A006D6B5F696E74657276616C204F
:100260003D2025640A006D6B5F64656C6179203DFB
:100270002025640A000A00257500363A2077686553
:10028000656C5F74696D655F746F5F6D61783A204E
:10029000000A00257500353A20776865656C5F6D4A
:1002A00061785F73706565643A20000A0025750007
:1002B000343A2074696D655F746F5F6D61783A20C0
:1002C000000A00257500333A206D61785F73706510
:1002D00065643A20000A00257500323A20696E7480
:1002E000657276616C286D73293A20000A002575C5
:1002F00000313A2064656C6179282A31306D7329A8
:100300003A20000A092D2056616C756573202D0A6C
:10031000004D3E004D25643E20003F007365742073
:1003200064656661756C740A00433E2000776865F9
:1003300072652064656C74613A20637572736F72C4
:100340003D25642C20776865656C3D25640A5365FE
:100350006520687474703A2F2F656E2E77696B690B
:1003600070656469612E6F72672F77696B692F4DB5
:100370006F7573655F6B6579730A000A092D204DEF
:100380006F7573656B6579202D0A4553432F713A5C
:1003900009717569740A313A0964656C6179282AB2
:1003A00031306D73290A323A09696E74657276616B
:1003B0006C286D73290A333A096D61785F73706533
:1003C00065640A343A0974696D655F746F5F6D61C5
:1003D000780A353A09776865656C5F6D61785F7397
:1003E000706565640A363A09776865656C5F74699B
:1003F0006D655F746F5F6D61780A0A703A0970729B
:10040000696E742076616C7565730A643A09736568
:10041000742064656661756C74730A75703A092B93
:10042000310A646F776E3A092D310A706775703A38
:10043000092B31300A7067646F776E3A092D3130BD
:100440000A0A7370656564203D2064656C746120E0
:100450002A206D61785F7370656564202A20287298
:100460006570656174202F2074696D655F746F5FBE
:100470006D6178290A003F004D3E2000433E200078
:100480004C25640A0074696D65725F72656164333E
:100490003228293A202530346C580A006B6579627D
:1004A0006F6172645F69646C653A2025580A006B5D
:1004B0006579626F6172645F70726F746F636F6C85
:1004C0003A2025580A00686F73745F6B6579626F14
:1004D0006172645F6C65647328293A2025580A00AC
:1004E0000A092D20537461747573202D0A00474347
:1004F000433A20382E332E30204156522D4C49425B
:10050000433A20322E302E30204156525F41524322
:10051000483A20617672350A004F5054494F4E5385
:100520003A204C554641204D4F5553454B45592097
:1005300045585452414B455920434F4E534F4C451B
:1005400020434F4D4D414E4420343039360A00424D
:1005500055494C443A2022302E372E3130302D313F
:10056000352D6736393864306422202832303A34E9
:10057000303A323220446563203231203230313912
:10058000290A005649443A20307846454544284BCC
:100590006974756E6529205049443A2030783030AE
:1005A00030302870657276697929205645523A2094
:1005B0003078303030310A00444553433A204120EE
:1005C000637573746F6D206B6579626F6172640A15
:1005D000000A092D2056657273696F6E202D0A007E
:1005E0000A092D20436F6E736F6C65202D0A4553E9
:1005F000432F713A09717569740A6D3A096D6F7507
:1006000073656B65790A000A092D204D616769637E
:10061000202D0A443A094465627567204D6573735D
:1006200061676520546F67676C650A583A094D61C8
:1006300074726978204465627567204D6F64652027
:10064000546F67676C65202D2053686F77206B654A
:10065000797072657373657320696E206D61747251
:10066000697820677269640A4B3A094B6579626F51
:1006700061726420446562756720546F67676C65BA
:10068000202D2053686F77206B65797072657373C6
:10069000207265706F72740A4D3A0944656275671D
:1006A000204D6F75736520546F67676C650A563A05
:1006B0000956657273696F6E0A533A09537461740F
:1006C00075730A433A09416374697661746520431E
:1006D0006F6E736F6C65204D6F64650A46312D46F1
:1006E00031303A0953776974636820746F204C6124
:1006F00079657220302D392028463130203D204C3C
:1007000030290A302D393A095377697463682074A7
:100710006F204C6179657220302D390A475241565D
:10072000453A0953776974636820746F204C617986
:10073000657220302028616C7465726E6174652961
:100740000A423A094A756D7020746F20426F6F74C7
:100750006C6F616465720A4553433A094A756D705E
:1007600020746F20426F6F746C6F61646572202813
:10077000616C7465726E617465290A453A0950723C
:10078000696E7420454550524F4D2053657474690D
:100790006E67730A4253504143453A09436C6561A1
:1007A0007220454550524F4D0A000A002575002E13
:1007B0006E6B726F3A20000A002575002E73776108
:1007C000705F6261636B736C6173685F6261636BBE
:1007D00073706163653A20000A002575002E7377F7
:1007E00061705F67726176655F6573633A20000AC6
:1007F000002575002E6E6F5F6775693A20000A004C
:100800002575002E737761705F72616C745F72671B
:1008100075693A20000A002575002E737761705FB4
:100820006C616C745F6C6775693A20000A0025750D
:10083000002E737761705F7263746C5F72677569A5
:100840003A20000A002575002E737761705F6C6393
:10085000746C5F6C6775693A20000A002575002E7C
:10086000636170736C6F636B5F746F5F636F6E74E3
:10087000726F6C3A20000A002575002E7377617044
:100880005F636F6E74726F6C5F636170736C6F63C4
:100890006B3A20000A0025303258006B65796D6193
:1008A000705F636F6E6669672E7261773A20000A27
:1008B000002575002E6D6F7573653A20000A0025BE
:1008C00075002E6B6579626F6172643A20000A00D0
:1008D0002575002E6D61747269783A20000A002532
:1008E00075002E656E61626C653A20000A00253045
:1008F00032580064656275675F636F6E6669672E64
:100900007261773A20000A0025750064656661759A
:100910006C745F6C617965723A20003F000A6D6FFC
:100920007573653A206F66660A000A6D6F757365A8
:100930003A206F6E0A000A6B6579626F6172643AE1
:10094000206F66660A000A6B6579626F6172643AAD
:10095000206F6E0A000A6D61747269783A206F66C2
:10096000660A000A6D61747269783A206F6E0A0037
:100970000A64656275673A206F66660A000A6465F4
:100980006275673A206F6E0A000A0A4A756D7069CF
:100990006E6720746F20626F6F746C6F6164657234
:1009A0002E2E2E2000433E2000436C656172696E3E
:1009B0006720454550524F4D0A006565636F6E666E
:1009C00069673A0A005B735D004B6579626F61721B
:1009D000642073746172742E0A005B575D005B5370
:1009E0005D005B525D005B445D005B435D000403A2
:1009F000300000000E037000650072007600690090
:100A0000790000000E034B006900740075006E0051
:100A1000650000000403090409025B00030100A053
:100A2000FA0904000001030101000921110100017C
:100A30002240000705810308000A090401000103A0
:100A40000000000921110100012285000705820331
:100A500020000A090402000203000000092111011C
:100A6000000122220007058303200001070503037C
:100A70002000011201100100000008EDFE0000013D
:100A800000010203010631FF0974A1010975150077
:100A900026FF009520750881020976150026FF00C3
:100AA000952075089102C005010902A1018502097E
:100AB00001A10005091901290515002501950575F4
:100AC0000181029501750381010501093009311584
:100AD00081257F95027508810609381581257F9546
:100AE0000175088106050C0A38021581257F9501DC
:100AF00075088106C0C005010980A10185031A811E
:100B0000002A83001601002603009501751081005C
:100B1000C0050C0901A10185041A01002A9C0216D6
:100B20000100269C02950175108100C0050109068F
:100B3000A101050719E029E71500250195087501B0
:100B400081029501750881010507190029FF15002B
:100B500026FF0095067508810005081901290595ED
:100B60000575019102950175039101C011241FBE05
:100B7000CFEFDAE0DEBFCDBF04B603FE27C0809121
:100B8000CC019091CD01A091CE01B091CF018730E1
:100B9000904BA740B04BD1F41092CC011092CD01F4
:100BA0001092CE011092CF0114BE84B7877F84BF0C
:100BB0000FB6F894A89580916000886180936000DA
:100BC000109260000FBEE0E0F8E3099511E0A0E0AC
:100BD000B1E0ECE9F5E502C005900D92A233B10752
:100BE000D9F721E0A2E3B1E001C01D92AC3CB2070D
:100BF000E1F70E94CD240C94A82A0C940000FF93E6
:100C0000EF93E0913201F0913301309709F00995AB
:100C1000EF91FF910895FC018591803011F0EFDF95
:100C2000FBCF0895FF27E0E230E247FF0CC041957B
:100C300097FF09C0EDE26095709580959095611DD4
:100C4000711D811D911D27FF02C0219530E350E2E7
:100C5000AA27660F771F881F991FAA1FA41710F0D5
:100C6000A41B63955A95A9F7AA3008F0A95FA05D67
:100C7000AF93F395611571058105910541F7ED324B
:100C800011F4EF93F395F21718F43F93F395FBCF1C
:100C90008F91B5DFFA95E1F70895E991F991859182
:100CA000803021F0853219F0AADFF9CF089520E0D5
:100CB000E89455915532C1F3503311F4689455912D
:100CC0005A3348F4505390F3220F022E220F220F72
:100CD000200D250FF4CF0EF421958991999153366B
:100CE00019F3533729F1533559F1BC018827992756
:100CF000E8945C3621F48991999168945591543621
:100D000039F446EF7EF077FF0DC08FEF9FEF0AC0FA
:100D100055374AE039F0583540E121F0523642E08B
:100D200009F00895FF93EF937DDFEF91FF91B7CF27
:100D3000FF93EF93FC0181918030B9F360DFFBCF2B
:100D4000FF93EF9368DFF1CFDF93CF93CDB7DEB79B
:100D50002596A3DFCF91DF91089581E0089581E08A
:100D600008950C94AF061F93CF93DF9300D000D06B
:100D70000F92CDB7DEB749835A836B832091480128
:100D800089819A8121111BC06623A9F00E94551701
:100D9000182F682F89819A810E94021769817A81B0
:100DA000812F0F900F900F900F900F90DF91CF91A8
:100DB0001F910C9483070E942E17182FEFCF0E94CB
:100DC000551769817A81EDCFFC01408151816281A3
:100DD000738184810C94B3060E94A918811102C00A
:100DE0000E9446190C94100A0C94130A08950C944E
:100DF000F60681E008950C94F906CF93C82F0E945F
:100E0000F7068C2FCF910C94FB0608950E94BA121E
:100E10000E9405072FEF84E39CE021508040904022
:100E2000E1F700C000000C947C1A0F931F93CF933E
:100E3000DF93EC010E94E4068C01BE010E94B10622
:100E40008823E9F0BE01C8010E94C90B8823B9F0CC
:100E5000BE01C8010E940A0C882389F08A81882378
:100E600049F101308CE5180781F00E3D8CE518073B
:100E7000F1F001158CE51807E9F40E94060780E0FF
:100E8000DF91CF911F910F91089590919B01892F30
:100E90008E7F90FF816080939B0180FF05C08EEC68
:100EA00090E00E940B06EBCF8CEB90E0FACF0E9413
:100EB0004619E5CF06311C45F9F40E94EA179A81DC
:100EC000992381F08A7A91E009F490E090933401BB
:100ED000811106C089E20E94C5170E942918CFCF50
:100EE00085E3F9CF80913401811104C089E20E9429
:100EF000CC17F3CF85E3FBCFCE01DF91CF911F91CC
:100F00000F910C94AD06E82FF0E0EE0FFF1FE70FF6
:100F1000F11DEE0FFF1FEE0FFF1FE60FF11DEE0F8D
:100F2000FF1FE455FF4F859194910895CF93DF9370
:100F30000E9483070E943509EC01811521E5920783
:100F400008F099C0811530E5930708F0F7C0883E96
:100F5000910508F07AC0803E910508F0EBC0883A10
:100F6000910588F4853A910508F0DAC08130910541
:100F700009F4E0C0009709F4DDC0049708F0DAC076
:100F8000D0E0C0E0D7C08F3B9105D0F7883A9105FB
:100F900009F426C1893A910509F425C18A3A9105D7
:100FA00009F424C18B3A910509F423C18C3A9105C7
:100FB00009F422C18B3B910509F421C18C3B9105B9
:100FC00009F420C18D3A910509F41FC1803B9105B8
:100FD00009F41EC18E3A910509F41DC18F3A91059D
:100FE00009F41CC1813B910509F41BC1823B9105A9
:100FF00009F41AC1833B910509F419C1843B910599
:1010000009F418C1853B910509F417C1863B910588
:1010100009F416C1873B910509F415C1883B910578
:1010200009F414C1893B910509F413C18D3B910565
:1010300009F412C18E3B910509F411C18A3B910557
:1010400009F410C1C0E0D4E475C08115904258F491
:10105000C11581E0D80708F06DC0C03FD10508F484
:101060008FCFD06567C0C11590E4D90708F488CF49
:10107000DF70D06A5FC0811525E5920700F5811504
:1010800034E5930708F08EC0811543E5940708F016
:1010900076C0C11582E5D80708F46CC0CE01837014
:1010A000992721E030E002C0220F331F8A95E2F732
:1010B000C695C69580E2C89FE001112457C0C115AE
:1010C00099E5D907A8F4C11528E5D20708F06FC043
:1010D000C11536E5D30708F053CF8C2F0E94CC09F9
:1010E000C82FD0E0DC2FCC27CC27DF71D06222C004
:1010F000C1154AE5D40708F45FC0CE0190568115AA
:10110000904208F03DCF8D2F8F710E94CC0990E066
:10111000982F882788279F719C012C2BE901E6CF07
:10112000853A910509F456C0863A910509F055C0F3
:10113000C2E8D0E4CE01DF91CF910895E4E0969526
:101140008795EA95E1F783702C2F269526952370D5
:1011500040E2249F90011124382B8C2F8370C1E032
:10116000D0E002C0CC0FDD1F8A95E2F7C22BD32B53
:10117000DC68E0CFDC2FCC27C16FD06ADBCF837077
:10118000992721E030E002C0220F331F8A95E2F751
:10119000C695C69590E2C99FE0011124C22BD32BBE
:1011A000DA68C8CFD82FCC27C46FD06AC3CFDC2F62
:1011B000CC27C06FD06ABECF8C2F8F700E94CC0915
:1011C00034E0D695C7953A95E1F7CF709C2FEC01A6
:1011D000D069B0CFC1E8D0E4ADCFC3E8D0E4AACFA6
:1011E000C2EED4E4A7CFC9EED4E4A4CFCAEED4E4CF
:1011F000A1CFC5EBD4E49ECFC6EBD4E49BCFC3EB29
:10120000D4E498CFC4EBD4E495CFC7EBD4E492CF29
:10121000CCECD4E48FCFCDECD4E48CCFC3E8D5E4D0
:1012200089CFCAE8D5E486CFC2E9D5E483CFC4E943
:10123000D5E480CFC1E2D6E47DCFC3E2D6E47ACF55
:10124000C4E2D6E477CFC5E2D6E474CFC6E2D6E4F2
:1012500071CFC7E2D6E46ECFCFE6D4E46BCFC0E760
:10126000D4E468CFCAE2D6E465CF82389105B1F103
:10127000B0F48133910509F475C048F489329105C1
:1012800009F469C08A32910509F473C00895853361
:10129000910509F459C08933910501F10895833E00
:1012A0009105A9F138F4803E9105F9F0823E91054F
:1012B00049F10895863E9105A9F1873E9105C9F14E
:1012C000843E910519F52091BE0121FF1FC0809138
:1012D000BD0184FD14C087EE90E008952091BD010A
:1012E0002370A1F080EE90E008952091BD0120FDD3
:1012F00047C03091BE0130FF09C024FF44C090E0D8
:1013000080E004C02091BD0122FDF7CF0895209117
:10131000BD0122FD3BC03091BE0130FDE3CF24FF73
:10132000F5CFEDCF2091BD0123FFF0CF24FDE7CF16
:10133000D2CF2091BD0123FD2CC03091BE0131FFE1
:10134000EECF84EE90E008952091BD0125FFDECF21
:1013500089E290E008952091BD0125FFD7CF85E374
:1013600090E008952091BD0126FFD0CF8AE290E061
:1013700008952091BD0126FFC9CF81E390E0089533
:1013800089E390E0089583EE90E0089582EE90E086
:10139000089586EE90E008959091BD0192FF06C0F9
:1013A000282F28712830F9F4877F846093FF06C0C6
:1013B000282F28712831F1F4877E84612091BE01A5
:1013C00020FF06C0382F38713830D9F4877F81600C
:1013D00021FF06C0282F28712831D1F4877E816132
:1013E00094FD877E0895282F24712430F9F68B7F91
:1013F0008860DCCF282F2471243101F78B7E88612F
:10140000DDCF382F3171313019F78E7F8860E0CF12
:10141000282F2171213121F78E7E8861E1CF089537
:101420000C940F0A08950C94120AE82FF0E0EB5C7C
:10143000FE4F80810895EF92FF920F931F93CF93F9
:10144000DF938EEE90E00E940B061F921F9209EE32
:1014500010E01F930F930E94A40686EE90E00E9476
:101460000B0685E3E82E81E0F82EF70180810E94CB
:1014700091181F928F93C1EED0E0DF93CF930E941B
:10148000A4068FED90E00E940B061F9281E08F93DF
:101490001F930F930E94A40686EE90E00E940B0615
:1014A000F70181810E9491181F928F93DF93CF9350
:1014B0000E94A406EDB7FEB770960FB6F894FEBF73
:1014C0000FBEEDBF8FED90E0DF91CF911F910F9197
:1014D000FF90EF900C940B06CF93DF9324982C9AF7
:1014E00025982D9AA3E1B1E047E151E0C1E0D0E0B9
:1014F0008D91E82FE295EF70F0E061A18F709E0171
:1015000001C0220F8A95EAF7922F9095962391A316
:1015100082A1822B82A34A175B0751F710923701F1
:1015200010923501109238011092360182E00E942B
:10153000250BDF91CF910C94EC067F928F929F92B6
:10154000AF92BF92CF92DF92EF92FF920F931F93D1
:10155000CF93DF93A7E3B1E007E111E0712CEE2414
:10156000E394F12CBC901D92E80189918E01E82F43
:10157000E295EF70F0E091A18F70B70101C0660FA6
:101580008A95EAF7892F862B81A382A1A62EA094A3
:101590008A2182A3D0EADA95F1F783E1C82E81E0AF
:1015A000D82E30E020E0AD0141505109E60189908C
:1015B0006E01882D82958F7090E0EC0188A1EA0180
:1015C000988090E0D82DDF7002C095958795DA95C8
:1015D000E2F780FD38C08E2D022E01C0880F0A94DC
:1015E000EAF78929EA0188832F5F3F4F24303105CC
:1015F000E9F681A18A2181A382A1682B62A381E0FF
:1016000098819B1101C080E0782AD1E0A933BD0701
:1016100009F0A8CF272D42E065E371E087E391E070
:101620000E94260B0E94F406872DDF91CF911F9117
:101630000F91FF90EF90DF90CF90BF90AF909F9071
:101640008F907F90089580E0CCCF0895FF920F9304
:101650001F93CF93DF93F82E092F162FD72FC42F68
:10166000222349F081E080933B010E94161A909357
:101670003A018093390180913B018823A1F0809148
:10168000390190913A010E942E1A069760F0EF2DD1
:10169000F02FA12FBD2FCE0FDF2FD11DEC17FD078F
:1016A00041F410923B01DF91CF911F910F91FF9078
:1016B000089581918D93F2CF0F931F93CF93DF9372
:1016C000C62FD42F022FFC0182818823C9F060939A
:1016D0003E010E94161A90933D0180933C0180E2E6
:1016E0008C0F883008F050C0C77081E001C0880FAF
:1016F000CA95EAF7DF91CF911F910F910C942D10AD
:1017000010913E01161335C080913C0190913D012E
:101710000E942E1A883C910560F5C0E2CD0F1D177E
:10172000B9F080E2810F883040F4177081E001C089
:10173000880F1A95EAF70E943410C83048F481E007
:101740009D2F977001C0880F9A95EAF70E942D107F
:10175000802F0E941A10C830B8F4D77081E001C001
:10176000880FDA95EAF7DF91CF911F910F910C94D2
:10177000341080E28C0F883038F4C77081E001C0EB
:10178000880FCA95EAF7EFCFDF91CF911F910F91A4
:1017900008959C01CB01233F4CE5340731F190F4CF
:1017A000283DFCE53F07E9F0293D4CE5340769F1A8
:1017B000273D3C4579F426E241EE61EE0E945C0B48
:1017C00080E00895253FFCE53F07B9F090F0263F03
:1017D0003C45B9F0FC0182818823D1F010923E0192
:1017E000089527E245EE65EEE9CF26E241EE60EE90
:1017F000E5CF27E245EE64EEE1CF26E241EE62EE70
:10180000DDCF27E245EE66EED9CF28E241E0EBCF0F
:1018100081E008951F93CF93DF93EC01FB011281C8
:10182000112309F40CC10E94BC189093BE0180934F
:10183000BD01C031FCE5DF0709F4CEC008F054C09B
:10184000C830ECE5DE0709F4B5C038F5C4308CE5E6
:10185000D80709F4A7C070F4C230FCE5DF0709F42B
:101860008EC0C330DC4509F499C0812FDF91CF9140
:101870001F9108958091BD018061C630ECE5DE07BF
:1018800009F480C08091BD018860C730DC4508F450
:1018900079C08091BD01806275C0CC308CE5D807DD
:1018A00009F492C070F48091BD018C60CA30FCE5EF
:1018B000DF0709F467C008F481C08091BD018E7F05
:1018C00061C08091BD01877FCE30ECE5DE0709F471
:1018D00059C08091BD018B7FCF30DC4508F452C0E8
:1018E0008091BD018F7E4EC0CB3F8CE5D80709F4B7
:1018F0005DC030F5C331FCE5DF0709F475C078F44D
:10190000C131ECE5DE0709F46BC0C231DC4509F0FA
:10191000ACCF0E94BA128091BD018F7733C0C53120
:101920008CE5D80709F468C008F47CC08091BE013A
:101930008160CA3FDC4509F098CF8093BE0124C086
:10194000CF3F8CE5D80709F453C060F48091BE0105
:101950008D7FCD3FFCE5DF0781F3D0F18091BE01A3
:101960008360EBCFC130EDE5DE0709F464C008F415
:101970004FC0C230DD4509F078CF80E05DC0809176
:10198000BD0181608093BD018091BD019091BE0138
:101990000E94CA180E94BA1210E067CF8091BD0160
:1019A0008260F0CF8091BD018460ECCF8091BE0158
:1019B0008260C3CF8091BD018064E4CF0E94BA12DF
:1019C0008091BD018068DECF8091BD018D7FDACF2F
:1019D0008091BE018E7FB1CF8091BD018F7DD2CF2E
:1019E0008091BD018F7BCECF8091BD01837FCACF17
:1019F0008091BE018C7FA1CF8091BD0182FB992790
:101A000090F921E0922790FB82F990FB83F9BACFFD
:101A10008091BE01982F909591708E7F892B90FBBD
:101A200081F98BCF0E94BA129091BD01892F97FB4B
:101A300087F98058A7CF81E00E944819A5CF11E00F
:101A400014CF90934401809343010895E0914301A2
:101A5000F0914401309721F00190F081E02D09943C
:101A600080E00895EF92FF920F931F93CF93DF933F
:101A70008C01E0914301F09144013097C1F1028063
:101A8000F381E02D099580919B0182FF30C080FF9A
:101A900004C085E091E00E940B06D0E0C0E08FEF2B
:101AA000E82E80E0F82E80919B0180FF0EC0F801A7
:101AB000EC0FFD1F80811F928F93FF92EF920E9487
:101AC000A4060F900F900F900F902196C830D1056B
:101AD00051F780919B0180FF0AC08DEF90E0DF916C
:101AE000CF911F910F91FF90EF900C940B06DF9117
:101AF000CF911F910F91FF90EF900895E0914301D6
:101B0000F0914401309739F022E0DC012C930480FD
:101B1000F581E02D09940895209141013091420111
:101B20002817390771F09093420180934101E091A9
:101B30004301F0914401309721F00680F781E02DB8
:101B40000994089520913F013091400128173907E9
:101B500071F09093400180933F01E0914301F09137
:101B60004401309721F00084F185E02D0994089517
:101B700085B7806885BF85B7806885BF089508955B
:101B800008950C94BF0D08950C94C30D0E94B80DD8
:101B90000E94C00D0C94C10D81E008950E940D1AA1
:101BA0000E946C0A0E94A01A0C94C40DCF93C82FF7
:101BB00080919B0182FF1EC080FF1CC08EE191E0DE
:101BC0000E940B0680919B0180FF14C01F92CF934F
:101BD00089E191E09F938F930E94A40680919B01DD
:101BE0000F900F900F900F9080FF04C087E191E05D
:101BF0000E940B068C2FCF910C94FD06BF92CF92C2
:101C0000DF92EF92FF920F931F93CF93DF93CDB7A5
:101C1000DEB72A970FB6F894DEBF0FBECDBF0E9485
:101C20009D0A0E94CC0D882309F471C086E4C82E59
:101C300081E0D82E10E000E0B02E802F0E94150A1F
:101C4000E82EF601F1906F01F81609F45DC080915D
:101C50009B0181FD0E941B0A90E080E0FE242F2D55
:101C600030E0482FB901082E02C0759567950A9497
:101C7000E2F760FF44C08E83BF8281E090E06C0198
:101C800002C0CC0CDD1C4A95E2F72E2D30E02C2151
:101C90003D21232B09F480E088870E94161A816079
:101CA000782F9A8789874E815F8168858A850E940F
:101CB000A80EF801EA5BFE4F80818C2580830E948C
:101CC000AF1C0E94260D90914501891789F10E9451
:101CD000260D809345012A960FB6F894DEBF0FBEFD
:101CE000CDBFDF91CF911F910F91FF90EF90DF90CB
:101CF000CF90BF900C94D60D01E010E09DCF0196DF
:101D00008430910509F0ADCF01301105A9F78FEFAF
:101D100089838A831B820E94161A8160782F9D8393
:101D20008C8349815A816B818D810E94A80EC7CF17
:101D30002A960FB6F894DEBF0FBECDBFDF91CF91CC
:101D40001F910F91FF90EF90DF90CF90BF9008957B
:101D5000CF93DF93CDB7DEB72B970FB6F894DEBFE6
:101D60000FBECDBF4F83588769877A878B871E82C6
:101D70001D8285E0FE013796DE01119601900D92DD
:101D80008A95E1F749815A816B817C818D819E81A1
:101D90002B960FB6F894DEBF0FBECDBFDF91CF916B
:101DA0000C945A15FC01808191810C949717CF9364
:101DB000C82F882309F4E6C08238C1F40E94260D9A
:101DC00081FDE0C089E30E94C5170E9429182FEF0A
:101DD00081EE94E0215080409040E1F700C0000087
:101DE00089E30E94CC17CF910C9429188338A1F471
:101DF0000E94260D80FDC6C083E50E94C5170E9483
:101E000029182FEF81EE94E0215080409040E1F7B7
:101E100000C0000083E5E5CF8438A1F40E94260DC0
:101E200082FDB0C087E40E94C5170E9429182FEFD9
:101E300081EE94E0215080409040E1F700C0000026
:101E400087E4CFCF8CEF8C0F813A48F48C2F0E941F
:101E50002821811197C08C2F0E94C517C4CF80E222
:101E60008C0F883048F4C77081E001C0880FCA9594
:101E7000EAF70E94ED17B7CF8BE58C0F833068F43B
:101E800081E890E0C53A31F083E890E0C63A11F479
:101E900082E890E0CF910C948C0D88E58C0F87310F
:101EA00008F068C082EE90E0C83A09F460C089EE9C
:101EB00090E0C93A09F45BC08AEE90E0CA3A09F4AE
:101EC00056C085EB90E0CB3A09F451C086EB90E028
:101ED000CC3A09F44CC083EB90E0CB3B09F447C00B
:101EE00084EB90E0CC3B09F442C087EB90E0CD3A24
:101EF000F1F18CEC90E0C03BD1F18DEC90E0CE3A6A
:101F0000B1F183E891E0CF3A91F18AE891E0C13BE9
:101F100071F182E991E0C23B51F184E991E0C33B68
:101F200031F181E292E0C43B11F183E292E0C53BE2
:101F3000F1F084E292E0C63BD1F085E292E0C73B4B
:101F4000B1F086E292E0C83B91F087E292E0C93BB3
:101F500071F08FE690E0CD3B51F080E790E0CE3B12
:101F600031F090E080E0CA3B11F48AE292E0CF9138
:101F70000C94A20DC03F30F08C2F0E943B1BCF91E0
:101F80000C94221CCF910895882309F452C0823802
:101F900071F40E94260D81FF4CC089E30E94C51791
:101FA0000E94291889E30E94CC170C9429188338C1
:101FB00059F40E94260D80FF3CC083E50E94C5179E
:101FC0000E94291883E5EFCF843859F40E94260D2A
:101FD00082FF2FC087E40E94C5170E94291887E45A
:101FE000E2CF9CEF980F913AF0F290E2980F983080
:101FF00050F4877091E001C0990F8A95EAF7892F14
:102000000E94F317D2CF9BE5980F933020F490E015
:1020100080E00C948C0D98E5980F973120F490E0B7
:1020200080E00C94A20D803F20F00E94A31B0C9432
:10203000221C0895CF93C82F0E94D70EC93349F4AC
:102040002FEF87EE93E0215080409040E1F700C0F1
:1020500000008C2FCF910C94C40F882321F00E9494
:10206000ED170C9429180895882321F00E94F31786
:102070000C9429180895BF92CF92DF92EF92FF92AD
:102080000F931F93CF93DF936C01D62FC72FFC01C3
:10209000058102950F70128111110E940A180E9489
:1020A000E317E82E882371F01123C9F080E28D0F29
:1020B0008830A8F082E00E9474180E94E31791E033
:1020C000E82EE926BC2EB2949FE0B922FBE0FB1576
:1020D000A8F1EB2DF0E0E655F54D0C944C2AE12CDF
:1020E000F1CF0C2F0F70C07F11F00295007F1123EC
:1020F000A9F0002359F080E28D0F883010F0D11143
:1021000009C0802F0E94ED170E9429188D2F0E9470
:10211000D70E14C0802F0E94FD17F6CF8D2F0E947E
:10212000C40F002359F080E28D0F883010F0D111D8
:102130002CC0802F0E94F3170E9429182B2D2850A5
:10214000330B2430310520F40E94260D0E94FD0639
:10215000EE2009F4C5C10E94DF1780FDC1C1F60160
:1021600012820E94D9170E946616C6010E947A1236
:102170000E94D917DF91CF911F910F91FF90EF909F
:10218000DF90CF90BF900C948716802F0E94031889
:10219000D3CF2C2F2F70F22EC07FC03219F0F294C3
:1021A00080EFF822DD2369F0D13049F1112391F15C
:1021B000002351F1F601858180FFA8CF8F708583C0
:1021C00023C0112381F0011106C00E9410188F292D
:1021D0000E942D10B3CF0130C1F70E9410188F2933
:1021E0000E941618ABCF011106C00E941F188F2D38
:1021F0000E943410A3CF013009F4A0CFF6CF1123F1
:1022000029F0063008F09ACF8F2DE2CF053008F084
:1022100095CFEDCF002359F3D93349F4FFEF27EEE3
:1022200033E0F15020403040E1F700C000008D2F36
:102230000E94C40F83CF8C2F86958695837069F09A
:10224000813009F07BCF8D2F9C2F9370111102C02C
:1022500090E080E00E94A20D71CF8D2F9C2F937093
:10226000111102C090E080E00E948C0D67CF112315
:1022700009F1D53F99F0D63FB9F0D43F49F48091A8
:10228000B7019091B80181609093B8018093B70134
:102290008D2F0E943B1B0E94221C50CF8091B701C2
:1022A0009091B8018260F0CF8091B7019091B80110
:1022B0008460EACFD53F89F0D63FA9F0D43F49F4F6
:1022C0008091B7019091B8018E7F9093B80180936F
:1022D000B7018D2F0E94A31BDECF8091B701909193
:1022E000B8018D7FF2CF8091B7019091B8018B7FBB
:1022F000ECCF8C2F837009F041C011111FCF4D2FEF
:10230000429546954770440F440F0D2F0F7010E013
:1023100030E020E0042E04C0000F111F221F331FE5
:102320000A94D2F760E070E0CB01D4FF0FC06FE0F9
:1023300070E080E090E004C0660F771F881F991F4F
:102340004A95D2F76095709580959095C695C695FB
:10235000C370602B712B822B932BC23049F058F441
:10236000C13019F00E941816E9CE0E940616E6CE7A
:102370000E942A16E3CE0E940416E0CE8695112311
:1023800011F08C2F8170882309F4D8CE4D2F4295FF
:1023900046954770440F440F0D2F0F7010E030E04A
:1023A00020E0042E04C0000F111F221F331F0A94C7
:1023B000D2F760E070E0CB01D4FF0FC06FE070E0B7
:1023C00080E090E004C0660F771F881F991F4A9530
:1023D000D2F76095709580959095C695C695C37017
:1023E000602B712B822B932BC23049F058F4C130F3
:1023F00019F00E94DD16A2CE0E94CB169FCE0E943D
:10240000EF169CCE0E94401699CECF70112329F072
:102410008C2F0E9466168D2FDBCE8D2F0E943410DC
:102420008C2F0E9487168ACED23F89F160F4D03F6C
:10243000C9F0D13F29F1112309F442C0011166CE40
:102440008C2F8F7121C0D33F39F1D43FA1F71123D5
:1024500069F1CF718C2F0E94661663E08C2F0E9469
:102460005F186CCE112341F0053008F067CE8C2F39
:102470008F710E94AA1662CE063008F05FCEF7CFA9
:102480008C2F8F71112369F20E94661657CE8C2F04
:102490008F711123C9F3C5CF112329F08C2F8F71B0
:1024A0000E9451164BCE0E944C1648CE81E00E94ED
:1024B0007418023008F442CE82E00E9474183ECEB6
:1024C000002359F0D93309F0B2CE8FEF97EEE3E055
:1024D00081509040E040E1F7A8CE8C2F8F71A1CFC2
:1024E000DF91CF911F910F91FF90EF90DF90CF90F0
:1024F000BF9008950F931F93CF93DF93EC018B81CF
:102500009C81892B29F08881998189238F3F29F427
:10251000DF91CF911F910F910895CE010E94150771
:102520008823B1F3688179818A810E94A1178C0187
:102530000E9401170E940316B801CE01DF91CF91CE
:102540001F910F910C943B100E940A180E940D18C5
:102550000E9429180E94461D0E94221C90E080E0E3
:102560000E948C0D90E080E00C94A20D0E94D31785
:102570000C94A4120E94FA170C94B612E92FE2955B
:10258000EF70E250EE3070F4F0E0EA54F54D0C9448
:102590004C2A803F19F020F4883E20F481E0089511
:1025A000843FE1F380E00895883EC0F3813FD1F796
:1025B000F5CF93FB882780F908950E9497170C9414
:1025C000BE12CF93DF9300D000D00F92CDB7DEB70D
:1025D0000F900F900F900F900F90DF91CF91089573
:1025E000CF93DF9300D000D000D0CDB7DEB72696D2
:1025F0000FB6F894DEBF0FBECDBFDF91CF91089527
:102600001F93CF93DF93C091490116E080914A0157
:102610008C1304C0DF91CF911F910895D0E01C9FCF
:10262000F0011D9FF00D1124E55BFE4F40815181AB
:1026300062817381848195810E94F0122196C77016
:10264000E5CF40917B0150917C0160917D017091BB
:102650007E0180917F01909180010C94F0121F9374
:10266000CF93DF9380918001807FC1F480917D01C1
:102670008823A1F080914901C0914A0160917B01BA
:1026800070917C0140917E0150917F01D62FD7231C
:10269000DA01A095B09516E0C81304C0DF91CF9180
:1026A0001F91089590E04115510511F0DF3F31F47D
:1026B00001968770F1CF2A0F3B1F17C0189FF001BA
:1026C000199FF00D1124E55BFE4F21812713F0CFF8
:1026D00020812613EDCF22812111EACF238134817D
:1026E0002417350740F3241B350B283C310500F730
:1026F000209180012F7020612093800126E0289F87
:10270000F001299FF00D1124E05BFE4F80818F7056
:10271000806180838BE791E00E947A12DF91CF91F4
:102720001F910C940013BF92CF92DF92EF92FF9211
:102730000F931F93CF93DF93CDB7DEB761970FB69B
:10274000F894DEBF0FBECDBF8C0185E0F801DE013D
:102750001D9601900D928A95E1F7D8014C91119642
:102760005C9111971296EC90129780917E01909156
:102770007F01009709F47FC120917B0130917C019A
:10278000622F63236F3F09F476C11396CD90DC90DE
:10279000B0907D01BB2009F411C1C816D906D0F153
:1027A000F601E81BF90BCF01FF24F394883C910557
:1027B00008F0F12C80918001982F907FFF2009F480
:1027C000B8C091117FC0FE2C351329C0241327C037
:1027D000E11025C08F708061809380010E942113D9
:1027E0008BE791E00E947A1280918001D8011596C2
:1027F0008C938F2D61960FB6F894DEBF0FBECDBFC0
:10280000DF91CF911F910F91FF90EF90DF90CF90CC
:10281000BF900895809590958C0D9D1DC5CFCD28B6
:1028200029F0852F84238F3F09F041C180E0B82F24
:10283000B170DB2E80FF3CC08091490120914A019C
:1028400036E0821315C04D875E878D859E850E9478
:102850009717292F22952F702230F0F0243018F589
:102860009F70F1F0F8019581907FD1F4D12C1EC0BA
:1028700090E0389FF001399FF00D1124E55BFE4F89
:102880006181651306C06081641303C06281E61232
:102890000FC001968770D5CF9F7011F0882331F358
:1028A000805E883018F3C8010E947A12FD2CA1CFF7
:1028B000EE2009F49ECF8091800181608093800199
:1028C000F12C97CF351306C0241304C0D801EE2095
:1028D00009F49AC04D875E878D859E850E94DD1222
:1028E000882319F1EE2009F180918001803270F087
:1028F00020917B0130917C0138872F831986DB86FC
:10290000CA868C87CE0107960E947A1286E0F8016B
:10291000ABE7B1E001900D928A95E1F70E942F1389
:102920000E942113FF24F39464CFC8010E947A12FD
:10293000F9CF911113C07C2DD98AC88A6E2D89894F
:102940000E94E1128BE791E00E947A1286E0EBE7A9
:10295000F1E0DF011D928A95E9F763C0351312C0DB
:10296000241310C0E1100EC0F8018583C8010E9435
:102970007A12EBE7F1E086E0DF011D928A95E9F734
:10298000FB2C37CF4D875E878D859E850E94DD129B
:10299000882359F2EE2049F280918001803208F4B8
:1029A000B5CF20917B0130917C013A8329831B8232
:1029B000DD82CC828E83CE010196A6CFC816D906C1
:1029C00098F1F601E81BF90BCF01F12C883C910539
:1029D00008F049C0FE2CEE2009F4A7CF351332C011
:1029E000241330C08091800180FD23C0982F907FF8
:1029F00001F1D80115968C931597903F39F0982FD7
:102A0000907F905F8F70892B15968C93C8010E94E0
:102A10007A1286E0F801ABE7B1E001900D928A9559
:102A2000E1F70E942113E5CE809590958C0D9D1DB8
:102A3000CCCF86E0F801ABE7B1E001900D928A952A
:102A4000E1F7D7CE4D875E878D859E850E94DD128A
:102A500081115CCF80918001816080938001C801E9
:102A60000E947A12C6CE7C2DD98AC88A6E2D898999
:102A70000E94E1126BCFEE2009F457CF4D875E879D
:102A80008D859E850E94DD12F82E882309F44DCF96
:102A900086E0F801ABE7B1E001900D928A95E1F78D
:102AA0008BE791E00E94D20E0E942F13BACF81E0F3
:102AB0008E25BDCE1F93CF93DF93CDB7DEB72C9776
:102AC0000FB6F894DEBF0FBECDBF4F83588769871E
:102AD0007A878B879C87CE0107960E949313882361
:102AE00069F08A859B85892B39F04F815885842F21
:102AF00085238F3F09F071C016E05FC086E0FE01BC
:102B00003796DE01119601900D928A95E1F78A853C
:102B10009B85892B89F388859F8189238F3F61F36A
:102B200020914A0130E0C9010196877099274091B0
:102B300049014817190671F40E94BA1210924A010D
:102B40001092490186E0EBE7F1E0DF011D928A95E2
:102B5000E9F7D2CF96E0929FD001939FB00D112458
:102B6000A55BBE4FFE01319601900D929A95E1F75B
:102B700080934A010E940013BFCF819FC00111249E
:102B8000855B9E4F0E9493138823E9F0E0914901F1
:102B90001E9FF0011124E55BFE4F4081518162814F
:102BA0007381848195810E94F0128091490190E0A7
:102BB00001968770992780934901809149019091EE
:102BC0004A018913DACF2C960FB6F894DEBF0FBEF8
:102BD000CDBFDF91CF911F91089569857A858B854F
:102BE0009C850E94F01288CF08950C94F4150E94E1
:102BF000F51560938A0170938B0180938C019093FB
:102C00008D010C94A41208950C94F7150F931F9343
:102C100000918A0110918B0120918C0130918D01DE
:102C2000602B712B822B932B1F910F910C94F71516
:102C30000F931F9300918A0110918B0120918C01B9
:102C400030918D0160237123822393231F910F9173
:102C50000C94F7150F931F9300918A0110918B012B
:102C600020918C0130918D01602771278227932755
:102C70001F910F910C94F7150C94F4150C943C16BD
:102C80000E943E16609386017093870180938801AD
:102C9000909389010C94A41260E070E0CB010C9435
:102CA00040160F931F9341E050E060E070E08A010E
:102CB0009B0104C0000F111F221F331F8A95D2F7FA
:102CC000C901B8011F910F910C9440160F931F93E7
:102CD00041E050E060E070E004C0440F551F661F03
:102CE000771F8A95D2F78091860190918701A091F4
:102CF0008801B09189018A019B01082B192B2A2B8D
:102D00003B2BC901B8011F910F910C9440160F93F2
:102D10001F9341E050E060E070E004C0440F551F95
:102D2000661F771F8A95D2F7CB01BA01609570951F
:102D300080959095009186011091870120918801DE
:102D40003091890160237123822393231F910F9176
:102D50000C9440160F931F9341E050E060E070E048
:102D600004C0440F551F661F771F8A95D2F78091C4
:102D7000860190918701A0918801B09189018A0113
:102D80009B01082719272A273B27C901B8011F9152
:102D90000F910C9440160F931F9300918601109190
:102DA00087012091880130918901602B712B822B42
:102DB000932B1F910F910C9440160F931F9300912A
:102DC000860110918701209188013091890160234B
:102DD0007123822393231F910F910C9440160F931C
:102DE0001F930091860110918701209188013091F5
:102DF000890160277127822793271F910F910C94D7
:102E000040160895990F990F890F982F977041E0F8
:102E100001C0440F9A95EAF786958695869595E0C8
:102E2000899FF0011124EF57FE4F30E020E070E061
:102E30005191DF011197CB01022E02C09695879523
:102E40000A94E2F7817081958527842385278C93E6
:102E50002F5F3F4F2530310559F70895990F990F8E
:102E6000890F982F977086958695869525E0829F85
:102E7000F0011124EF57FE4F50E040E080E0219137
:102E800030E0092E02C0369527950A94E2F72170AA
:102E90003327042E01C0220F0A94EAF7822B4F5FDA
:102EA0005F4F4530510559F70895BF92CF92DF9299
:102EB000EF92FF920F931F93CF93DF938C01C090FB
:102EC0008601D0908701E0908801F090890180917F
:102ED0008A0190918B01A0918C01B0918D01C82A3B
:102EE000D92AEA2AFB2ACFE1D0E0BC2ED701C601BD
:102EF0000C2E04C0B695A795979587950A94D2F79E
:102F000080FD0EC0219788F7B12C8B2DDF91CF91DA
:102F10001F910F91FF90EF90DF90CF90BF90089599
:102F2000B8018C2F0E949607019761F3EECFCF93E3
:102F3000DF93EC010E945517BE01DF91CF910C94F5
:102F400096071F93CF93DF93EB019091480199234C
:102F500031F0CB01DF91CF911F910C94971788230B
:102F600079F0CB010E945517182F682FCE010E94CF
:102F70000217BE01812FDF91CF911F910C9496070C
:102F8000CB010E942E17182FF4CF682F80910001DB
:102F9000909101010C948619682F80910001909105
:102FA00001010C94881980910001909101010C9409
:102FB0008A1980918E0185958595859508958091D2
:102FC0008E018770089590918E01977081E009F4C9
:102FD00080E0089580919A01089590919A01892B3B
:102FE00080939A010895809590919A0198239093E7
:102FF0009A01089510929A01089590919901892B50
:1030000080939901089580959091990198239093C8
:1030100099010895109299010895109298010895C8
:1030200080918F01089508950C94131890918F0149
:10303000981721F080938F010C94141808958091B3
:103040008F01882329F010928F0180E00C941418CE
:103050000895E0910001F091010180919A0180832F
:10306000E0910001F0910101808190919901892BFB
:103070008083E0910001F09101018081909198019D
:10308000892B808390918F01992381F0E091000139
:10309000F09101018081892B8083809100019091C2
:1030A00001010E944D1981110E941F188091000199
:1030B000909101010C94320D08950C945C1898E0E5
:1030C000899F90011124622B60938E010E946616E5
:1030D00080918E018595859585950C945D1810924B
:1030E0008E0180E00C945D1890918E01809589236B
:1030F00080938E01282F277071F4282F082E000C42
:10310000330B9217130639F08595859585950E94A6
:1031100087160C946F1808959093330180933201B1
:103120000895829590E09C01220F331F220F331FD8
:103130002C7C95958795959587958373282B30E002
:10314000C901880F991F8A7A359527952575822B95
:10315000089590E080E00E946E2A21E08C3E9E4F10
:1031600009F020E0822F089582E090E00C94662A16
:1031700083E090E00C94662ACF9384E090E00E9474
:10318000662AC82F81E290E00E94662A982F8C2F31
:10319000CF910895CF93C92F682F84E090E00E94CB
:1031A000742A6C2F81E290E0CF910C94742AAB01C9
:1031B000BC018FE090E00C94862AAB01BC0183E156
:1031C00090E00C94862A60E070E0CB010C94DD184E
:1031D00060E070E0CB010E94D7180C94E3186CEE0D
:1031E0007EEF90E080E00E94922A60E082E090E032
:1031F0000E94742A60E083E090E00E94742A10929A
:103200008A0110928B0110928C0110928D0160E066
:1032100084E090E00E94742A60E081E290E00E94E5
:10322000742A60E085E090E00E94742A60E086E005
:1032300090E00E94742A6FEF87E090E00E94742A69
:1032400040E050E0BA0188E090E00E94862A60E009
:103250008DE090E00E94742A40E050E0BA0188E1DD
:1032600090E00E94862A60E087E190E00E94742A44
:1032700040E050E0BA018CE190E00E94862A60E0D4
:1032800080E290E00E94742A0C94E8180C94EF18E5
:10329000682F8EE090E00C94742A9C012E5F3F4FC3
:1032A000AC01485F5F4F80E02417350709F40895AB
:1032B000F90191919F019923B9F38F5FF5CF9C019B
:1032C000FC0132969FEF80E04191461751F09F3FFD
:1032D00019F4411101C0982F8F5F8630A9F79F3FE5
:1032E00009F40895290F311D97FD3A95F90162837C
:1032F0000895FC01329608962191261303C0DF0140
:1033000011971C92E817F907B9F708950C945F1903
:103310000C947919029626E0FC0111922A95E9F79E
:103320000895089508950C9492190E94931980911C
:10333000C301843049F110929C0188E190E020E4BF
:103340000FB6F894A895809360000FBE209360009C
:1033500080E00E94FD060E94931983B7817F8460FC
:1033600083BF83B7816083BF7894889583B78E7F4E
:1033700083BF0FB6F894A895809160008861809310
:103380006000109260000FBE089508950E94911988
:103390000E949D0A0E94C51980E00E94150A91E0D2
:1033A000811107C081E00E94150A91E0811101C0DE
:1033B00090E0892F089508950C94DB190E94BA12A9
:1033C0000E94260D0E94FD060C94DC191F921FB668
:1033D0001F9211248F939F93AF93BF9380919C0171
:1033E000811113C08091B9019091BA01A091BB01E4
:1033F000B091BC014196A11DB11D8093B90190937C
:10340000BA01A093BB01B093BC01BF91AF919F9152
:103410008F911F901FBE1F90189582E084BD93E08E
:1034200095BD9AEF97BD80936E0008952FB7F894DD
:103430008091B9019091BA01A091BB01B091BC01FA
:103440002FBF08952FB7F8946091B9017091BA0118
:103450008091BB019091BC012FBF0895CF92DF9264
:10346000EF92FF920F931F932FB7F8944091B901F9
:103470005091BA016091BB017091BC012FBF6A01EC
:103480007B01EE24FF248C0130E020E0C016D10641
:10349000E206F30650F0481B590BCA011F910F9129
:1034A000FF90EF90DF90CF90089541505109F3CFF6
:1034B00078941F921FB61F9211248F939F93AF93FE
:1034C000BF938091B9019091BA01A091BB01B091D5
:1034D000BC010196A11DB11D8093B9019093BA0161
:1034E000A093BB01B093BC01BF91AF919F918F910D
:1034F0001F901FBE1F90189581E08093E00080E22E
:103500008093D8001092C9008FE19EE40197F1F7F3
:1035100000C0000087E090EBDC018093CC01909329
:10352000CD01A093CE01B093CF0188E19CE00FB60E
:10353000F894A895809360000FBE90936000FFCF31
:103540000E94A918811102C00E9446190E94B41855
:1035500080939B010E94BC189093BE018093BD0193
:103560000E94B818682F70E090E080E00C94041678
:103570008091A00180FF12C06091050185E0689FE5
:10358000B00111247595679575956795603871053B
:10359000A8F561157105A1F1862F089581FF09C075
:1035A0006091050185E0689FB001112475956795CC
:1035B000EDCF6091050182FD0AC080919F018823B3
:1035C000D1F09091040160910501891728F085E000
:1035D000689FB0011124DACF869FB001112485E0E5
:1035E000869F9001879F300D1124692F70E0C901DB
:1035F0000E94382ACBCF65E070E0CECF8FE70895E8
:1036000081E008958091A00180FF0CC060910301CA
:1036100070E075956795759567956115710549F128
:10362000862F089581FF06C06091030170E07595B3
:103630006795F3CF6091030182FD0BC090919F01CC
:103640009923A1F06091020180910301961738F04F
:10365000682F70E06038710500F38FE70895899F47
:10366000C001112470E00E94382AF4CF61E070E0BC
:10367000D7CF81E00895803F31F40E94B81A819538
:103680008093A4010895813F19F40E94B81AF8CFDD
:10369000823F31F40E94B81A81958093A301089566
:1036A000833F19F40E94B81AF8CF893F29F40E9489
:1036B000021B8093A50108958A3F21F40E94021BFA
:1036C0008195F7CF8B3F31F40E94021B8195809347
:1036D000A60108958C3F19F40E94021BF8CF843F85
:1036E00031F48091A20181608093A2010895853F09
:1036F00021F48091A2018260F7CF863F21F480916E
:10370000A2018460F1CF873F21F48091A2018860FB
:10371000EBCF883F21F48091A2018061E5CF8D3FFE
:1037200031F48091A00181608093A00108958E3FC3
:1037300021F48091A0018260F7CF8F3FB9F780918B
:10374000A0018460F1CF9091A301803F41F480916A
:10375000A40187FD1092A401992371F00895813F7F
:1037600029F48091A4011816ACF3F6CF823F81F4BE
:1037700097FFF2CF1092A3018091A4019091A5012F
:10378000892B9091A601892B49F710929F010895EA
:10379000833F19F4191674F3DFCF893F39F4809110
:1037A000A5011816CCF61092A501D6CF8A3F29F4B0
:1037B0008091A50187FFD0CFF6CF8B3F39F4809160
:1037C000A60187FFC9CF1092A601C6CF8C3F29F46E
:1037D0008091A6011816BCF3BFCF843F31F48091CD
:1037E000A2018E7F8093A201B7CF853F21F4809103
:1037F000A2018D7FF7CF863F21F48091A2018B7FBC
:10380000F1CF873F21F48091A201877FEBCF883FE2
:1038100021F48091A2018F7EE5CF8D3F31F480911C
:10382000A0018E7F8093A00197CF8E3F21F48091DD
:10383000A0018D7FF7CF8F3F09F08ECF8091A0013F
:103840008B7FF0CF80919B0183FF7EC088E591E064
:103850000E940B068091A2011F928F9383E591E055
:103860009F938F930E94A40681E591E00E940B062E
:103870008091A301282F082E000C330B3F938F93C8
:103880008EE491E09F938F930E94A4068CE491E0D4
:103890000E940B068091A401282F082E000C330BE8
:1038A0003F938F9389E491E09F938F930E94A406A6
:1038B00087E491E00E940B068091A501282F082E35
:1038C000000C330B3F938F9384E491E09F938F938D
:1038D0000E94A40682E491E00E940B068091A6015A
:1038E000282F082E000C330B3F938F938FE391E02A
:1038F0009F938F930E94A4068CE391E00E940B0695
:1039000080919F011F928F9389E391E09F938F9302
:103910000E94A40687E391E00E940B068091A0011B
:103920001F928F9384E391E09F938F930E94A4064C
:1039300081E391E00E940B068DB79EB74C960FB6BF
:10394000F8949EBF0FBE8DBF81EA91E00E947E0D6C
:103950000E94161A90939E0180939D0108951F93D3
:10396000CF93DF9380919D0190919E010E942E1A2A
:10397000AC0190919F012091060130E0911106C0A9
:10398000209107018AE0289F9001112442175307D4
:1039900078F02091A301C091A401D091A5011091CC
:1039A000A601211109C08C2F8D2B812B09F06AC033
:1039B000DF91CF911F9108959F3F19F09F5F9093E2
:1039C0009F01121624F40E94B81A8093A3018091DB
:1039D000A30187FF05C00E94B81A81958093A301B7
:1039E0001C1624F40E94B81A8093A4018091A401AB
:1039F00087FF05C00E94B81A81958093A401309179
:103A0000A3013323A1F02091A401222381F045EBEF
:103A10003403C0011124992369F19093A30145EB6C
:103A2000240390011124332349F13093A4011D167E
:103A300024F40E94021B8093A5018091A50187FFB9
:103A400005C00E94021B81958093A501111624F4E4
:103A50000E94021B8093A6018091A60187FF05C0EA
:103A60000E94021B81958093A601DF91CF911F9147
:103A70000C94221C81E08093A301D1CF81E080933C
:103A8000A401D5CF9F3F09F099CFAACF86E0E1EA04
:103A9000F1E0DF011D928A95E9F710929F011092E3
:103AA000A00108958BE793E00E940B061F9281E02E
:103AB0008F931F9285E08F938DE293E09F938F9376
:103AC0000E94A4060F900F900F900F900F900F90F0
:103AD0000895833009F445C028F4813061F08230C4
:103AE00049F10895853009F46AC008F451C0863060
:103AF00009F47CC0089580910701482F460F55278F
:103B0000551F4F3F510594F4680F60930701809152
:103B100007011F928F9386E692E09F938F930E94F6
:103B2000A4060F900F900F900F9008958FEF809341
:103B30000701EDCF80910601482F460F5527551FED
:103B40004F3F510554F4680F6093060180910601C0
:103B50001F928F9384E592E0E0CF8FEF8093060170
:103B6000F5CF80910501482F460F5527551F4F3F30
:103B7000510554F4680F60930501809105011F926F
:103B80008F9381E492E0C9CF8FEF80930501F5CF49
:103B900080910401482F460F5527551F4F3F51056F
:103BA00054F4680F60930401809104011F928F9375
:103BB0008CE292E0B2CF8FEF80930401F5CF809139
:103BC0000301482F460F5527551F4F3F510554F409
:103BD000680F60930301809103011F928F9383E12B
:103BE00092E09BCF8FEF80930301F5CF809102018C
:103BF000482F460F5527551F4F3F510554F4680F66
:103C000060930201809102011F928F9388EF91E0EF
:103C100084CF8FEF80930201F5CF8330C9F128F470
:103C2000813061F0823019F10895853009F452C075
:103C300008F43FC0863009F45EC008958091070102
:103C4000681790F4861B80930701809107011F92EB
:103C50008F9389EE91E09F938F930E94A4060F901B
:103C60000F900F900F90089510920701EECF809162
:103C70000601681750F4861B8093060180910601A7
:103C80001F928F9387ED91E0E6CF10920601F6CF59
:103C900080910501681750F4861B8093050180917F
:103CA00005011F928F9384EC91E0D5CF109205010E
:103CB000F6CF80910401681750F4861B80930401AD
:103CC000809104011F928F938FEA91E0C4CF1092EC
:103CD0000401F6CF80910301681750F4861B80938E
:103CE0000301809103011F928F9386E991E0B3CF86
:103CF00010920301F6CF80910201681750F4861BE1
:103D000080930201809102011F928F938BE791E0D3
:103D1000A2CF10920201F6CFCF93C82F1F928F939C
:103D200080E894E09F938F930E94A40661E070E086
:103D300080E090E004C0660F771F881F991FCA9526
:103D4000D2F70E9404160F900F900F900F90CF9112
:103D50000C94BA12CF93DF938B3109F409C208F0A7
:103D6000A0C18B3009F4C7C108F06AC1863009F4DC
:103D7000D5C148F4853009F4A2C18BE199E00E94D5
:103D80000B0680E0DBC1873009F4DBC18830A9F77E
:103D90008AEB99E00E940B068BE099E00E940B06EB
:103DA0000E94B8181F928F9388E099E09F938F9399
:103DB0000E94A40686E099E00E940B060E94B418B7
:103DC000C82F83EF98E00E940B061F92CF938EEED0
:103DD00098E09F938F930E94A4068CEE98E00E9437
:103DE0000B0682EE98E00E940B068C2F81701F92CA
:103DF0008F938FED98E09F938F930E94A4068DED93
:103E000098E00E940B0683ED98E00E940B06C1FB30
:103E1000882780F91F928F9380ED98E09F938F936E
:103E20000E94A4068EEC98E00E940B0682EC98E0BB
:103E30000E940B06C2FB882780F91F928F938FEB9D
:103E400098E09F938F930E94A4068DEB98E00E94C8
:103E50000B0684EB98E00E940B06C3FBCC27C0F94D
:103E60001F92CF9381EB98E09F938F930E94A406BB
:103E70008FEA98E00E940B060E94BC18EC018BE9C7
:103E800098E00E940B06DF93CF9386E998E09F931A
:103E90008F930E94A40684E998E00E940B068BE7AA
:103EA00098E00E940B068C2F81701F928F9388E7F9
:103EB00098E09F938F930E94A4068DB79EB780963B
:103EC0000FB6F8949EBF0FBE8DBF86E798E00E94A4
:103ED0000B068FE598E00E940B06C1FB882780F94E
:103EE0001F928F938CE598E09F938F930E94A40676
:103EF0008AE598E00E940B0688E498E00E940B0691
:103F00008D2F81701F928F9385E498E09F938F93FC
:103F10000E94A40683E498E00E940B0681E398E0E7
:103F20000E940B06D695D1701F92DF938EE298E027
:103F30009F938F930E94A4068CE298E00E940B0648
:103F40008AE198E00E940B06C2FB882780F91F9245
:103F50008F9387E198E09F938F930E94A40685E159
:103F600098E00E940B0683E098E00E940B06C3FBDA
:103F7000882780F91F928F9380E098E09F938F931A
:103F80000E94A4068EEF97E00E940B0684EF97E054
:103F90000E940B06C4FB882780F91F928F9381EF44
:103FA00097E09F938F930E94A4068FEE97E00E9464
:103FB0000B068DED97E00E940B06C5FB882780F964
:103FC0001F928F938AED97E09F938F930E94A40690
:103FD00088ED97E00E940B068CEB97E00E940B06A1
:103FE000C6FB882780F91F928F9389EB97E09F93F8
:103FF0008F930E94A4068DB79EB780960FB6F89453
:104000009EBF0FBE8DBF87EB97E00E940B068FEA25
:1040100097E00E940B06C7FBCC27C0F91F92CF93F5
:104020008CEA97E09F938F930E94A4068AEA97E018
:104030000E940B060F900F900F900F9081E07EC0B2
:10404000803109F4ADC080F48E3009F096CE9091A5
:104050009B01892F8B7F92FF846080939B0182FF5D
:104060009CC086E499E090C0863109F4A9C08931EA
:1040700009F083CE81ED95E00E940B0688EB95E078
:104080000E940B0683E895E00E940B068FE495E002
:104090000E940B0689E195E00E940B068EEE94E0EB
:1040A0002CC08A32A1F1E8F4873269F128F48E310C
:1040B00008F463CE8D5128C0893209F05ECE0E948B
:1040C000BA1289E899E00E940B069FEF23ED80E386
:1040D000915020408040E1F700C000000E947C1A0F
:1040E000ADCF833468F48A3308F0A1C0853359F02A
:1040F000883309F042CE87E096E00E940B069ECFFF
:10410000833409F03ACE80E00E948C1E97CF89EA72
:1041100099E00E940B060E94461990CF80919B0166
:10412000807F80939B0180EE95E00E940B0685EADC
:1041300099E00E940B0681E08093A801DF91CF9166
:10414000089590919B01892F8E7F90FF81608093CD
:104150009B0180FF03C08DE799E0CFCF80E799E016
:104160000E940B0680919B01817F80939B0166CF0B
:1041700090919B01892F8D7F91FF826080939B019D
:1041800081FF08C083E699E00E940B0680919B01A5
:104190008160EBCF85E599E0B0CF86E399E0ADCFC4
:1041A00090919B01892F877F93FF886080939B016B
:1041B00083FF03C08AE299E0E7CF8DE199E09DCFCC
:1041C00080EE94E00E940B060E94260D1F928F93B2
:1041D00086EC94E09F938F930E94A4068091120135
:1041E0001F928F938FEA94E09F938F930E94A4066F
:1041F0008091B5011F928F938CE994E09F938F93E8
:104200000E94A4060E94221A9F938F937F936F931C
:1042100085E894E09F938F930E94A4068DB79EB784
:1042200042960FB6F8949EBF0FBE8DBF07CF89533D
:104230006BCF80E008950C9419218E518A3030F4B0
:10424000E82FF0E0E75EFE4F8081089580E008955A
:10425000CF93C82F8091A8018130C1F0882339F015
:10426000823009F447C01092A80180E00DC00E947E
:10427000EA178232D1F78C2F0E94192181111BC0BD
:104280008C2F0E94AA1E8170CF9108950E94EA1778
:10429000823289F38C2F0E941B2181111BC0C431F3
:1042A000D9F060F4CB3071F0C031D1F086E794E002
:1042B0000E940B0613C081E090E0E5CFC93261F0A7
:1042C000C833A1F780EE95E00E940B068CE794E0DE
:1042D0000E940B0681E0D7CF1092A80180E0D3CFD7
:1042E0000E94521D88E794E00E940B0682E08093B2
:1042F000A801F0CFC432C8F4CE3108F0BEC0CB3034
:10430000E1F040F4C73009F4CCC08AE193E00E94A8
:104310000B0626C0C331C1F1C431B9F78091A701A2
:10432000882351F11092A7010AC0CB3409F4B7C019
:10433000C8F4C93299F3C83341F70E94521D8091E5
:10434000A701882309F4C4C01F928F9384E193E0EE
:104350009F938F930E94A4060F900F900F900F9041
:1043600081E092CFC13509F494C0C23509F48BC005
:10437000CE3459F66AE08EC089E293E00E940B06C3
:1043800081E08093A80180CF83E093E00E940B0638
:1043900081EF92E00E940B06809107011F928F939C
:1043A0008EEE92E09F938F930E94A4068CEE92E093
:1043B0000E940B068AED92E00E940B068091060196
:1043C0001F928F9387ED92E09F938F930E94A40694
:1043D00085ED92E00E940B0686EC92E00E940B06AF
:1043E000809105011F928F9383EC92E09F938F93AE
:1043F0000E94A40681EC92E00E940B0680EB92E002
:104400000E940B06809104011F928F938DEA92E027
:104410009F938F930E94A4068BEA92E00E940B0662
:1044200086E992E00E940B06809103011F928F9310
:1044300083E992E09F938F930E94A40681E992E022
:104440000E940B068AE792E00E940B06809102010F
:104450001F928F9387E792E09F938F930E94A40609
:1044600085E792E00E940B068DB79EB748960FB67F
:10447000F8949EBF0FBE8DBF62CF8C2F0E941D216E
:104480008093A7015CCF61E08091A7010E94691D24
:1044900056CF61E08091A7010E940D1E50CF6AE0C7
:1044A000F3CF8EE18093070182E3809306018AE0D7
:1044B0008093050184E18093040188E080930301E7
:1044C00088E2809302018CE193E00E940B0637CFD3
:1044D00081E193E01CCF8091B40108959FB7F894D7
:1044E0001092AB019FBF9091C301943009F048C076
:1044F0002091E9002F703091EC00932F917030FDE6
:1045000090E8922B23E02093E9002091EB0020FF1C
:1045100034C02091EE0027FF30C02091A901222352
:1045200021F02091E80025FF28C01092A90126E083
:104530003091E80035FF14C08093F1008091E800CD
:1045400085FD27C08091E80080FFFCCF8091E800C6
:104550008E778093E8009F709093E90080E0089543
:104560003091C301343049F43091EB0035FD05C082
:10457000215041F481E08093A9019F709093E9005C
:104580008FEF0895EFE9FFE03197F1F700C00000E9
:10459000CFCF8FB7F89421E02093AB018FBFDBCF53
:1045A0000F931F93CF93DF9300D00F92CDB7DEB759
:1045B0008C010E947F25823011F0843021F584E047
:1045C00089831B830A8382E08093E9008FEF9091B7
:1045D000E800815095FD06C095ED9A95F1F7000031
:1045E0008111F5CF8091E80085FF0DC050E040E0DB
:1045F00063E070E0CE0101960E949C258091E80066
:104600008E778093E8000F900F900F90DF91CF91FD
:104610001F910F910895CF93DF9300D00F92CDB7E4
:10462000DEB72091C301243031F523E0298380587F
:1046300091099B838A8382E08093E9008FEF9091B8
:10464000E800815095FD06C095ED9A95F1F70000C0
:104650008111F5CF8091E80085FF0DC050E040E06A
:1046600063E070E0CE0101960E949C258091E800F5
:104670008E778093E8000F900F900F90DF91CF918D
:104680000895CF93DF93EC010E947F25823011F0D3
:104690008430F9F482E08093E9008FEF9091E80094
:1046A000815095FD06C095ED9A95F1F700008111B6
:1046B000F5CF8091E80085FF0CC050E040E066E057
:1046C00070E0CE010E949C258091E8008E77809357
:1046D000E800DF91CF910895CF93DF93EC010E9422
:1046E0007F25823011F0843039F581E08093E90034
:1046F0008FEF9091E800815095FD06C095ED9A9559
:10470000F1F700008111F5CF8091E80085FF14C01A
:1047100050E040E068E070E0CE010E949C2580916E
:10472000E8008E778093E80088E0FE01ACEAB1E013
:1047300001900D928A95E1F7DF91CF9108958AEE6D
:1047400099E00E940B068091C201811109C00E946C
:104750002C270E9489278091E20084608093E200E8
:10476000089586EE99E00E940B061092C20108950A
:1047700082EE99E00C940B068EED99E00C940B06FA
:104780008AED99E00E940B060C94DE192091AA0193
:104790002F5F822F62E30E942C2A992319F0209325
:1047A000AA0108951092AA018091AB018823F1F02B
:1047B0008091C3018430C1F49091E9009F702091F1
:1047C000EC00822F817020FD80E8892B93E090938C
:1047D000E9009091EB0090FF04C09091EE0097FDEE
:1047E00008C08F708093E9001092AB010895109279
:1047F000F1009091E80095FDFACF9091E80090FFCC
:10480000F0CF9091E8009E779093E800EACF42E0E5
:1048100061EC81E00E94A82642E261EC82E00E9405
:10482000A82642E261EC83E00C94A8268091C501A1
:10483000833009F45FC030F48130C1F1823009F473
:104840009BC008958A3009F487C08B3009F46DC08D
:10485000893009F04EC08091C401813209F049C00D
:104860008091C8019091C901029708F042C08091DF
:10487000E800877F8093E8008091E80082FF35C0E0
:104880009091F3008091F200029729F48091F10059
:104890008B7F813021F48091F1008093B40180916D
:1048A000E8008B778093E8000C94DC268091C401AB
:1048B000813AF9F48091E800877F8093E800809145
:1048C000C8019091C901892B61F468E08CEA91E0FC
:1048D00070E00E94EB258091E8008B778093E800E0
:1048E000089560E090E080E0F3CF8091C3018111F2
:1048F000C3CF08958091C401813AD9F78091C8014E
:104900009091C901892BA9F78091E800877F809356
:10491000E8008091E80080FFFCCF80911201809335
:10492000F1008091E8008E77BDCF8091C401813283
:1049300001F78091C8019091C901892BD1F680912E
:10494000E800877F8093E8000E94DC268091C60102
:10495000809312010C94BA128091C401813249F6FD
:104960008091E800877F8093E8000E94DC26809198
:10497000C7018093B50108958091C401813A09F07F
:10498000B8CF8091E800877F8093E8008091E800AD
:1049900080FFFCCF8091B501C2CF84B7877F84BFF1
:1049A0000FB6F894A89580916000886180936000AC
:1049B000109260000FBE80E890E00FB6F8948093EC
:1049C0006100909361000FBE0E94C60D0E942C27CB
:1049D0000E9489278091E20084608093E2008EE645
:1049E00092E20E948C1878940E94112A0E94CE0DA7
:1049F00088E091E00E94210D89EC99E00E940B066D
:104A00008091C301853019F00E94FE0DF9CF85EC2D
:104A100099E00E940B060E9495198091C10188239C
:104A200079F30E94C619882359F30E948625E8CF9E
:104A30000C941A25292F33272330310521F168F4EE
:104A40002130310509F449C02230310509F44AC04A
:104A500090E080E030E020E029C02132310581F192
:104A600022323105A9F76330710590F7FB01EE0F93
:104A7000FF1FEA5DFE4F208131816D5D7E4FFB019E
:104A8000808190E013C099278130910599F00097BB
:104A900041F08230910589F00397D1F6EEEEF9E00E
:104AA00002C0E4E1FAE0849190E09F01FA013183D1
:104AB00020830895E4E0FAE0F6CFE4EFF9E0F3CFE5
:104AC0006330710528F6660F771FFB01E45DFE4F2A
:104AD0002081318189E090E0E9CF82E190E023E715
:104AE0003AE0E4CF8BE590E028E13AE0DFCF809137
:104AF000C301843011F482E0089581E0089580912B
:104B0000B601811102C00C947725089580E189BD1A
:104B100082E189BD09B400FEFDCF8091D8008F7D70
:104B20008093D8008091E00082608093E0008091C3
:104B3000E00081FDFCCF0895AF92BF92CF92DF924B
:104B4000FF920F931F93CF93DF936C01EB018A01C8
:104B50000E94FB26F82E811123C00115110539F0A2
:104B6000F80180819181C81BD90BC80ED91EB12CC8
:104B7000A12C2097A9F08091E80085FD22C08091AA
:104B8000E8008E778093E80001151105A1F0F80187
:104B900080819181A80EB91EB182A08285E0F82E95
:104BA0008F2DDF91CF911F910F91FF90DF90CF90CC
:104BB000BF90AF9008950E94FB268823D1F2F82E73
:104BC000EFCFF60181916F018093F1002197FFEF04
:104BD000AF1ABF0ACECFFC018091CA019091CB01E0
:104BE00086179707A0F06115710529F49091E800E8
:104BF0009E779093E80090E06115710551F4911152
:104C000008C08091E80082FF34C080E00895BC01B4
:104C1000F2CF8091C3018823C1F18530C1F1809129
:104C2000E80083FD30C08091E80082FDEACF8091EA
:104C3000E80080FFE1CF8091F3002091F200382F4F
:104C40006115710519F02830310558F091E02830D0
:104C5000310509F090E02091E8002E772093E800DC
:104C6000CBCF81918093F100615071092F5F3F4F4D
:104C7000E7CF8091C301882341F0853041F08091D6
:104C8000E80083FFBECF81E0089582E0089583E0CD
:104C90000895FC018091CA019091CB018617970776
:104CA000A0F06115710529F48091E8008E7780935A
:104CB000E80090E06115710551F4911108C08091F0
:104CC000E80082FF35C080E00895BC01F2CF8091FA
:104CD000C3018823C9F18530C9F18091E80083FDC3
:104CE00031C08091E80082FDEACF8091E80080FF2A
:104CF000E1CF8091F3002091F200382F611571050A
:104D000019F02830310558F091E02830310509F0CC
:104D100090E08091E8008E778093E800CBCF84917B
:104D20008093F1003196615071092F5F3F4FE6CFBC
:104D30008091C301882341F0853041F08091E800E3
:104D400083FFBDCF81E0089582E0089583E0089558
:104D5000982F973028F08F708093E90081E00895B4
:104D60009093E900242F762F50E0981731F070913E
:104D7000EC002091ED005091F00021FD02C09F5FFA
:104D8000E8CF3091EB003E7F3093EB003091ED00A7
:104D90003D7F3093ED003091EB0031603093EB00BC
:104DA0007093EC002093ED005093F0002091EE0002
:104DB00027FDE5CF80E008958091C40187FF13C0EF
:104DC0008091E80082FF06C08091E8008B77809395
:104DD000E80004C08091C3018111F2CF0895809151
:104DE000C3018823D9F38091E80080FFF8CF809138
:104DF000E8008E77ECCF2091E4003091E50095E655
:104E0000A9012091EC00822F817020FF06C08091C3
:104E1000E80080FF06C080E008952091E80022FDB0
:104E20001AC08091C301882389F0853089F0809170
:104E3000EB0085FD0FC02091E4003091E5004217A2
:104E40005307F9F29150E1F684E0089582E0089565
:104E500083E0089581E008950E949A270E94A22786
:104E6000E0EEF0E0808181608083E8EDF0E0808119
:104E70008F77808319BCA7EDB0E08C918E7F8C93E7
:104E800080818F7E80831092C20108950F931F93BB
:104E9000CF93DF930E949A270E94A227C8EDD0E00B
:104EA00088818F77888388818068888388818F7DD7
:104EB000888319BC1092C3011092BF011092C101E6
:104EC0001092C00100EE10E0F80180818B7F80839A
:104ED00088818160888342E060E080E00E94A826AB
:104EE000E1EEF0E080818E7F8083E2EEF0E0808171
:104EF00081608083808188608083F80180818E7FDB
:104F00008083888180618883DF91CF911F910F9189
:104F10000895E8EDF0E080818F7E8083E7EDF0E09A
:104F200080818160808384E082BF81E08093C201C0
:104F30000C944627E8EDF0E080818E7F808310920C
:104F4000E20008951092DA001092E10008951F9295
:104F50000F920FB60F9211242F933F934F935F93AD
:104F60006F937F938F939F93AF93BF93EF93FF9331
:104F70008091E10082FF0BC08091E20082FF07C0B8
:104F80008091E1008B7F8093E1000E94C623809195
:104F9000DA0080FF19C08091D80080FF15C0809191
:104FA000DA008E7F8093DA008091D90080FF96C06E
:104FB00080E189BD82E189BD09B400FEFDCF81E0B9
:104FC0008093C3010E949F238091E10080FF19C05C
:104FD0008091E20080FF15C08091E2008E7F809377
:104FE000E2008091E20080618093E2008091D8002D
:104FF00080628093D80019BC85E08093C3010E9431
:10500000BC238091E10084FF2BC08091E20084FFEB
:1050100027C080E189BD82E189BD89B5982F917053
:1050200080FFFBCF8091D8008F7D8093D800809146
:10503000E1008F7E8093E1008091E2008F7E80937B
:10504000E2008091E20081608093E2008091BF01E4
:10505000882309F449C084E08093C3010E94C023DF
:105060008091E10083FF29C08091E20083FF25C089
:105070008091E100877F8093E10082E08093C3010B
:105080001092BF018091E1008E7F8093E1008091BA
:10509000E2008E7F8093E2008091E2008061809345
:1050A000E20042E060E080E00E94A8268091F000EB
:1050B00088608093F0000E94B823FF91EF91BF9128
:1050C000AF919F918F917F916F915F914F913F91A0
:1050D0002F910F900FBE0F901F90189519BC109232
:1050E000C3010E94B12370CF8091E30087FD93E05C
:1050F0009093C301B3CF1F920F920FB60F9211245A
:105100002F933F934F935F936F937F938F939F93CF
:10511000AF93BF93CF93DF93EF93FF93D091E900C9
:10512000DF708091EC00C82FC17080FDC0E8109244
:10513000E9008091F000877F8093F00078940E94CE
:10514000BF281092E9008091F00088608093F00001
:10515000CD2BCF70C093E900FF91EF91DF91CF91FC
:10516000BF91AF919F918F917F916F915F914F917F
:105170003F912F910F900FBE0F901F9018951F9386
:10518000CF93DF93CDB7DEB7AA970FB6F894DEBF03
:105190000FBECDBF84EC91E02091F100FC01219382
:1051A000CF01F1E08C3C9F07B9F70E941624809153
:1051B000E80083FF1EC18091C4019091C5019A301F
:1051C00008F017C1E92FF0E0EC53F54D0C944C2A90
:1051D000803899F0823809F00CC18091C8018F7035
:1051E000873008F006C18093E9008091EB0085FBD1
:1051F000882780F91092E90006C08091C001909143
:10520000C101911182609091E800977F9093E8002E
:105210008093F1001092F1008091E8008E77E5C054
:10522000882309F4D3C0823009F0E3C08091C6011D
:105230008111D6C08091C8018F702FEF280F2630C2
:1052400008F0D7C08093E9002091EB0020FFC8C090
:10525000933031F48091EB0080628093EB00C0C00A
:105260009091EB0090619093EB0021E030E001C061
:10527000220F8A95EAF72093EA001092EA008091C3
:10528000EB008860EACF8111B4C01091C6011F778E
:105290008091E3008078812B8093E3008091E80087
:1052A000877F8093E8000E94DC268091E80080FFE1
:1052B000FCCF8091E30080688093E30082E01111CD
:1052C00083E08093C30195C08058823008F091C07C
:1052D0008091C6019091C7018C3D23E09207A1F512
:1052E00083E08A838AE289834FB7F894DE011396BC
:1052F00020E03EE051E2E32FF0E050935700E491CC
:1053000020FF03C0E295EF703F5FEF708E2F90E0BB
:10531000EA30C0F0C7968D939D932F5F243159F7E3
:105320004FBF8091E800877F8093E8006AE270E0D9
:10533000CE0101960E94EB258091E8008B77809347
:10534000E80057C0C096E7CF6091C8017091C901CD
:10535000AE014F5F5F4F0E941825BC01892B09F4F5
:1053600048C09091E800977F9093E80089819A81E6
:105370000E944926E1CF8038E1F58091E800877FDF
:105380008093E8008091BF018093F10045CF8111A7
:1053900030C09091C601923060F58091E800877F1F
:1053A0008093E8009093BF010E94DC268091BF01AA
:1053B000882311F084E005C08091E30087FDFACFD7
:1053C00081E08093C3010E94072413C08091C6012D
:1053D000813079F481E0933009F080E08093C1015D
:1053E0001092E9008091E800877F8093E8000E9496
:1053F000DC268091E80083FF0AC08091E800877F67
:105400008093E8008091EB0080628093EB00AA9685
:105410000FB6F894DEBF0FBECDBFDF91CF911F91C5
:105420000895CF938091C3018823A1F0C091E90032
:10543000CF709091EC00892F817090FD80E8C82B8F
:105440001092E9008091E80083FD0E94BF28CF7090
:10545000C093E900CF910895991B79E004C0991F8A
:10546000961708F0961B881F7A95C9F780950895BE
:1054700097FB072E16F4009407D077FD09D00E9401
:10548000522A07FC05D03EF4909581959F4F0895D0
:10549000709561957F4F0895EE0FFF1F0590F49171
:1054A000E02D0994AA1BBB1B51E107C0AA1FBB1F1B
:1054B000A617B70710F0A61BB70B881F991F5A95A0
:1054C000A9F780959095BC01CD010895F999FECF7B
:1054D00092BD81BDF89A992780B50895A8E1B0E002
:1054E00042E050E00C949A2A262FF999FECF92BD03
:1054F00081BDF89A019700B4021639F01FBA20BD99
:105500000FB6F894FA9AF99A0FBE08950396272FCA
:105510000E94752A0E94742A252F0E94752A242F22
:105520000C94752A0196272F0E94752A0C94742AD0
:10553000DC01CB01FC01F999FECF06C0F2BDE1BD53
:10554000F89A319600B40D9241505040B8F7089542
:10555000F894FFCF71107110C910C9101B113711C9
:105560009E109E107911051214121412C912C9123C
:10557000D212D212D412D212D212D212C912C9121B
:10558000D912D212D212D912E8281029F9291029D9
:0C559000F92943296429F929BB29C729FE
:10559C0090012808140A321E6B226C2341230B2322
:1055AC00D0220133323600343501020304050607DC
:1055BC000809004085222C0BA70A850A2A0A430AEF
:0255CC005C0A77
:00000001FF
